{
  "_format": "hh-sol-artifact-1",
  "contractName": "PocketIndex",
  "sourceName": "contracts/PocketIndex.sol",
  "abi": [
    {
      "inputs": [
        {
          "internalType": "address",
          "name": "_routerAddress",
          "type": "address"
        },
        {
          "internalType": "address",
          "name": "_baseTokenAddress",
          "type": "address"
        }
      ],
      "stateMutability": "nonpayable",
      "type": "constructor"
    },
    {
      "anonymous": false,
      "inputs": [
        {
          "indexed": false,
          "internalType": "address",
          "name": "contractAddress",
          "type": "address"
        },
        {
          "indexed": false,
          "internalType": "uint256",
          "name": "timestamp",
          "type": "uint256"
        }
      ],
      "name": "NewAssetAdded",
      "type": "event"
    },
    {
      "inputs": [
        {
          "internalType": "address",
          "name": "_contractAddress",
          "type": "address"
        }
      ],
      "name": "addAsset",
      "outputs": [],
      "stateMutability": "nonpayable",
      "type": "function"
    },
    {
      "inputs": [],
      "name": "approveEverything",
      "outputs": [],
      "stateMutability": "nonpayable",
      "type": "function"
    },
    {
      "inputs": [],
      "name": "baseTokenAddress",
      "outputs": [
        {
          "internalType": "contract IERC20",
          "name": "",
          "type": "address"
        }
      ],
      "stateMutability": "view",
      "type": "function"
    },
    {
      "inputs": [],
      "name": "bulkBuy",
      "outputs": [],
      "stateMutability": "nonpayable",
      "type": "function"
    },
    {
      "inputs": [],
      "name": "currentWorth",
      "outputs": [
        {
          "internalType": "uint256",
          "name": "",
          "type": "uint256"
        }
      ],
      "stateMutability": "view",
      "type": "function"
    },
    {
      "inputs": [],
      "name": "disolvePosition",
      "outputs": [],
      "stateMutability": "nonpayable",
      "type": "function"
    },
    {
      "inputs": [
        {
          "internalType": "uint256",
          "name": "amount",
          "type": "uint256"
        }
      ],
      "name": "disolveWithLP",
      "outputs": [],
      "stateMutability": "nonpayable",
      "type": "function"
    },
    {
      "inputs": [],
      "name": "getAllAssets",
      "outputs": [
        {
          "components": [
            {
              "internalType": "address",
              "name": "contractAddress",
              "type": "address"
            },
            {
              "internalType": "uint256",
              "name": "balance",
              "type": "uint256"
            }
          ],
          "internalType": "struct PocketIndex.Asset[]",
          "name": "",
          "type": "tuple[]"
        }
      ],
      "stateMutability": "view",
      "type": "function"
    },
    {
      "inputs": [
        {
          "internalType": "address",
          "name": "user",
          "type": "address"
        },
        {
          "internalType": "address",
          "name": "_contractAddress",
          "type": "address"
        }
      ],
      "name": "getBalance",
      "outputs": [
        {
          "internalType": "uint256",
          "name": "",
          "type": "uint256"
        }
      ],
      "stateMutability": "view",
      "type": "function"
    },
    {
      "inputs": [
        {
          "internalType": "address",
          "name": "user",
          "type": "address"
        }
      ],
      "name": "getBalances",
      "outputs": [
        {
          "internalType": "uint256[]",
          "name": "",
          "type": "uint256[]"
        }
      ],
      "stateMutability": "view",
      "type": "function"
    },
    {
      "inputs": [],
      "name": "getLastBuyTime",
      "outputs": [
        {
          "internalType": "uint256",
          "name": "",
          "type": "uint256"
        }
      ],
      "stateMutability": "view",
      "type": "function"
    },
    {
      "inputs": [],
      "name": "getNextBuyers",
      "outputs": [
        {
          "internalType": "address[]",
          "name": "",
          "type": "address[]"
        }
      ],
      "stateMutability": "view",
      "type": "function"
    },
    {
      "inputs": [],
      "name": "getTotalAssets",
      "outputs": [
        {
          "internalType": "uint256",
          "name": "",
          "type": "uint256"
        }
      ],
      "stateMutability": "view",
      "type": "function"
    },
    {
      "inputs": [],
      "name": "getTotalBuyers",
      "outputs": [
        {
          "internalType": "uint256",
          "name": "",
          "type": "uint256"
        }
      ],
      "stateMutability": "view",
      "type": "function"
    },
    {
      "inputs": [
        {
          "internalType": "address",
          "name": "_contractAddress",
          "type": "address"
        }
      ],
      "name": "getTotalInvestedForAsset",
      "outputs": [
        {
          "internalType": "uint256",
          "name": "",
          "type": "uint256"
        }
      ],
      "stateMutability": "view",
      "type": "function"
    },
    {
      "inputs": [
        {
          "internalType": "address",
          "name": "user",
          "type": "address"
        }
      ],
      "name": "getUSDTBalance",
      "outputs": [
        {
          "internalType": "uint256",
          "name": "",
          "type": "uint256"
        }
      ],
      "stateMutability": "view",
      "type": "function"
    },
    {
      "inputs": [],
      "name": "indexLPToken",
      "outputs": [
        {
          "internalType": "contract IIndexLP",
          "name": "",
          "type": "address"
        }
      ],
      "stateMutability": "view",
      "type": "function"
    },
    {
      "inputs": [],
      "name": "lastBuyTime",
      "outputs": [
        {
          "internalType": "uint256",
          "name": "",
          "type": "uint256"
        }
      ],
      "stateMutability": "view",
      "type": "function"
    },
    {
      "inputs": [],
      "name": "managementFee",
      "outputs": [
        {
          "internalType": "uint256",
          "name": "",
          "type": "uint256"
        }
      ],
      "stateMutability": "view",
      "type": "function"
    },
    {
      "inputs": [],
      "name": "performanceFee",
      "outputs": [
        {
          "internalType": "uint256",
          "name": "",
          "type": "uint256"
        }
      ],
      "stateMutability": "view",
      "type": "function"
    },
    {
      "inputs": [
        {
          "internalType": "uint256",
          "name": "amount",
          "type": "uint256"
        }
      ],
      "name": "pitchAmount",
      "outputs": [],
      "stateMutability": "nonpayable",
      "type": "function"
    },
    {
      "inputs": [
        {
          "internalType": "address",
          "name": "_indexLPToken",
          "type": "address"
        }
      ],
      "name": "setIndexLPToken",
      "outputs": [],
      "stateMutability": "nonpayable",
      "type": "function"
    },
    {
      "inputs": [],
      "name": "totalBulkBuys",
      "outputs": [
        {
          "internalType": "uint256",
          "name": "",
          "type": "uint256"
        }
      ],
      "stateMutability": "view",
      "type": "function"
    },
    {
      "inputs": [
        {
          "internalType": "address",
          "name": "user",
          "type": "address"
        },
        {
          "internalType": "uint256",
          "name": "amount",
          "type": "uint256"
        }
      ],
      "name": "withdrawUSDTBalance",
      "outputs": [],
      "stateMutability": "nonpayable",
      "type": "function"
    }
  ],
  "bytecode": "0x60806040523480156200001157600080fd5b50604051620031da380380620031da8339810160408190526200003491620000aa565b600080546001600160a01b039384166001600160a01b03199182168117835560018054949095169382169390931784556004805482169093179092556003805490921633179091556008556007819055600655620000e2565b80516001600160a01b0381168114620000a557600080fd5b919050565b60008060408385031215620000be57600080fd5b620000c9836200008d565b9150620000d9602084016200008d565b90509250929050565b6130e880620000f26000396000f3fe608060405234801561001057600080fd5b50600436106101985760003560e01c806385b27116116100e3578063d16dd5381161008c578063f29f4d0b11610066578063f29f4d0b1461038b578063fb7cf19214610394578063fd417669146103e957600080fd5b8063d16dd53814610324578063d4fac45d14610339578063e97b76891461038357600080fd5b8063a6f7f5d6116100bd578063a6f7f5d6146102e8578063babb4259146102f1578063c84aae171461030457600080fd5b806385b27116146102a157806387788782146102d75780639472fb8e146102e057600080fd5b806351c9a9411161014557806376f3e8871161011f57806376f3e8871461025b5780637a3ee4651461026e5780637cb374bd1461028157600080fd5b806351c9a94114610234578063656d3d001461023c5780636e07302b1461025357600080fd5b8063298410e511610176578063298410e5146102045780632acada4d146102175780633bfdbda51461022c57600080fd5b8063059351a41461019d5780630d357b2b146101e75780632230ba2d146101f1575b600080fd5b6002546101bd9073ffffffffffffffffffffffffffffffffffffffff1681565b60405173ffffffffffffffffffffffffffffffffffffffff90911681526020015b60405180910390f35b6101ef6103f1565b005b6101ef6101ff366004612c2d565b6105a5565b6101ef610212366004612c6f565b610e92565b61021f610f85565b6040516101de9190612c8a565b6101ef611007565b6101ef611cae565b61024560085481565b6040519081526020016101de565b600a54610245565b610245610269366004612c6f565b612203565b6101ef61027c366004612c2d565b61229a565b6001546101bd9073ffffffffffffffffffffffffffffffffffffffff1681565b6102456102af366004612c6f565b73ffffffffffffffffffffffffffffffffffffffff1660009081526009602052604090205490565b61024560075481565b6102456124ec565b61024560065481565b6101ef6102ff366004612cef565b612783565b610317610312366004612c6f565b612965565b6040516101de9190612d19565b61032c612a6d565b6040516101de9190612dae565b610245610347366004612dc1565b73ffffffffffffffffffffffffffffffffffffffff91821660009081526009602090815260408083209390941682526001909201909152205490565b600b54610245565b61024560055481565b6101ef6103a2366004612c6f565b600280547fffffffffffffffffffffffff00000000000000000000000000000000000000001673ffffffffffffffffffffffffffffffffffffffff92909216919091179055565b600554610245565b600a5460005b818110156105a157600a818154811061041257610412612df4565b600091825260208220600290910201549054600a805473ffffffffffffffffffffffffffffffffffffffff9384169363095ea7b3931691908590811061045a5761045a612df4565b60009182526020909120600290910201546040517f70a0823100000000000000000000000000000000000000000000000000000000815230600482015273ffffffffffffffffffffffffffffffffffffffff909116906370a0823190602401602060405180830381865afa1580156104d6573d6000803e3d6000fd5b505050506040513d601f19601f820116820180604052508101906104fa9190612e23565b6040517fffffffff0000000000000000000000000000000000000000000000000000000060e085901b16815273ffffffffffffffffffffffffffffffffffffffff909216600483015260248201526044016020604051808303816000875af115801561056a573d6000803e3d6000fd5b505050506040513d601f19601f8201168201806040525081019061058e9190612e3c565b508061059981612e8d565b9150506103f7565b5050565b60008111610614576040517f08c379a000000000000000000000000000000000000000000000000000000000815260206004820152601d60248201527f416d6f756e74206d7573742062652067726561746572207468616e203000000060448201526064015b60405180910390fd5b6002546040517f70a08231000000000000000000000000000000000000000000000000000000008152336004820152829173ffffffffffffffffffffffffffffffffffffffff16906370a0823190602401602060405180830381865afa158015610682573d6000803e3d6000fd5b505050506040513d601f19601f820116820180604052508101906106a69190612e23565b101561070e576040517f08c379a000000000000000000000000000000000000000000000000000000000815260206004820152601660248201527f4d757374206861766520736169642062616c616e636500000000000000000000604482015260640161060b565b6002546040517f70a0823100000000000000000000000000000000000000000000000000000000815233600482015260009173ffffffffffffffffffffffffffffffffffffffff16906370a0823190602401602060405180830381865afa15801561077d573d6000803e3d6000fd5b505050506040513d601f19601f820116820180604052508101906107a19190612e23565b60035490915073ffffffffffffffffffffffffffffffffffffffff163303610825576040517f08c379a000000000000000000000000000000000000000000000000000000000815260206004820152601360248201527f43616e277420626520696e746572616374656400000000000000000000000000604482015260640161060b565b6001546040517f70a0823100000000000000000000000000000000000000000000000000000000815230600482015260009173ffffffffffffffffffffffffffffffffffffffff16906370a0823190602401602060405180830381865afa158015610894573d6000803e3d6000fd5b505050506040513d601f19601f820116820180604052508101906108b89190612e23565b600a5490915060006108d5846108cf876064612adc565b90612aef565b6040805160028082526060820183529293506000929091602083019080368337505060018054835193945073ffffffffffffffffffffffffffffffffffffffff1692849250811061092857610928612df4565b602002602001019073ffffffffffffffffffffffffffffffffffffffff16908173ffffffffffffffffffffffffffffffffffffffff168152505060005b83811015610b9457600a818154811061098057610980612df4565b60009182526020822060029091020154835173ffffffffffffffffffffffffffffffffffffffff9091169184916109b9576109b9612df4565b73ffffffffffffffffffffffffffffffffffffffff909216602092830291909101820152336000908152600990915260408120600a8054610a50926064926108cf92899260010191879189908110610a1357610a13612df4565b6000918252602080832060029092029091015473ffffffffffffffffffffffffffffffffffffffff16835282019290925260400190205490612adc565b60045490915073ffffffffffffffffffffffffffffffffffffffff166338ed17398260008630610a81426005612ef4565b6040518663ffffffff1660e01b8152600401610aa1959493929190612f07565b6000604051808303816000875af1158015610ac0573d6000803e3d6000fd5b505050506040513d6000823e601f3d9081017fffffffffffffffffffffffffffffffffffffffffffffffffffffffffffffffe0168201604052610b069190810190612f50565b50336000908152600960205260408120600a80548493600190930192919086908110610b3457610b34612df4565b6000918252602080832060029092029091015473ffffffffffffffffffffffffffffffffffffffff16835282019290925260400181208054909190610b7a90849061302c565b90915550829150610b8c905081612e8d565b915050610965565b506001546040517f70a08231000000000000000000000000000000000000000000000000000000008152306004820152600091610c3591879173ffffffffffffffffffffffffffffffffffffffff16906370a08231906024015b602060405180830381865afa158015610c0b573d6000803e3d6000fd5b505050506040513d601f19601f82011682018060405250810190610c2f9190612e23565b90612afb565b90506000610c546103e86108cf60065485612adc90919063ffffffff16565b90506000610c736103e86108cf60075486612adc90919063ffffffff16565b9050610c8381610c2f8585612afb565b3360009081526009602052604081208054909190610ca2908490612ef4565b909155505060015433600081815260096020526040908190205490517fa9059cbb0000000000000000000000000000000000000000000000000000000081526004810192909252602482015273ffffffffffffffffffffffffffffffffffffffff9091169063a9059cbb906044016020604051808303816000875af1158015610d2f573d6000803e3d6000fd5b505050506040513d601f19601f82011682018060405250810190610d539190612e3c565b50336000908152600960205260408082209190915560025490517fa9059cbb000000000000000000000000000000000000000000000000000000008152306004820152602481018b905273ffffffffffffffffffffffffffffffffffffffff9091169063a9059cbb906044016020604051808303816000875af1158015610dde573d6000803e3d6000fd5b505050506040513d601f19601f82011682018060405250810190610e029190612e3c565b506002546040517f42966c68000000000000000000000000000000000000000000000000000000008152600481018b905273ffffffffffffffffffffffffffffffffffffffff909116906342966c6890602401600060405180830381600087803b158015610e6f57600080fd5b505af1158015610e83573d6000803e3d6000fd5b50505050505050505050505050565b60408051808201825273ffffffffffffffffffffffffffffffffffffffff83811680835260006020808501828152600a8054600181018255935294517fc65a7bb8d6351c1cf70c95a316cc6a92839c986682d98bc35f958f4883f9d2a8600290930292830180547fffffffffffffffffffffffff000000000000000000000000000000000000000016919095161790935592517fc65a7bb8d6351c1cf70c95a316cc6a92839c986682d98bc35f958f4883f9d2a990930192909255825191825242908201527f6dfc6b499373a130decc8ee67ecc2b1f3eaf6589c6cf609b84c03d71e5c4ccec910160405180910390a150565b6060600a805480602002602001604051908101604052809291908181526020016000905b82821015610ffe5760008481526020908190206040805180820190915260028502909101805473ffffffffffffffffffffffffffffffffffffffff168252600190810154828401529083529092019101610fa9565b50505050905090565b60035473ffffffffffffffffffffffffffffffffffffffff163314611088576040517f08c379a000000000000000000000000000000000000000000000000000000000815260206004820152601360248201527f43616e277420626520696e746572616374656400000000000000000000000000604482015260640161060b565b6001546040517f70a0823100000000000000000000000000000000000000000000000000000000815230600482015260009173ffffffffffffffffffffffffffffffffffffffff16906370a0823190602401602060405180830381865afa1580156110f7573d6000803e3d6000fd5b505050506040513d601f19601f8201168201806040525081019061111b9190612e23565b11611182576040517f08c379a000000000000000000000000000000000000000000000000000000000815260206004820152601360248201527f446f6e2774206861766520616e797468696e6700000000000000000000000000604482015260640161060b565b6001546000546040517f70a0823100000000000000000000000000000000000000000000000000000000815230600482015273ffffffffffffffffffffffffffffffffffffffff9283169263095ea7b392169083906370a0823190602401602060405180830381865afa1580156111fd573d6000803e3d6000fd5b505050506040513d601f19601f820116820180604052508101906112219190612e23565b6040517fffffffff0000000000000000000000000000000000000000000000000000000060e085901b16815273ffffffffffffffffffffffffffffffffffffffff909216600483015260248201526044016020604051808303816000875af1158015611291573d6000803e3d6000fd5b505050506040513d601f19601f820116820180604052508101906112b59190612e3c565b506001546040517f70a0823100000000000000000000000000000000000000000000000000000000815230600482015260009173ffffffffffffffffffffffffffffffffffffffff16906370a0823190602401602060405180830381865afa158015611325573d6000803e3d6000fd5b505050506040513d601f19601f820116820180604052508101906113499190612e23565b90506008546000036113e4576002546040517f40c10f190000000000000000000000000000000000000000000000000000000081523060048201526024810183905273ffffffffffffffffffffffffffffffffffffffff909116906340c10f1990604401600060405180830381600087803b1580156113c757600080fd5b505af11580156113db573d6000803e3d6000fd5b5050505061157c565b600254604080517f18160ddd000000000000000000000000000000000000000000000000000000008152905160009273ffffffffffffffffffffffffffffffffffffffff16916318160ddd9160048083019260209291908290030181865afa158015611454573d6000803e3d6000fd5b505050506040513d601f19601f820116820180604052508101906114789190612e23565b90506103e8826114866124ec565b6114909082612ef4565b905060006114a4826108cf876103e8612adc565b905060006114b28483612afb565b905060006114c6826108cf886103e8612adc565b60025490915073ffffffffffffffffffffffffffffffffffffffff166340c10f19306114f2848a612afb565b6040517fffffffff0000000000000000000000000000000000000000000000000000000060e085901b16815273ffffffffffffffffffffffffffffffffffffffff90921660048301526024820152604401600060405180830381600087803b15801561155d57600080fd5b505af1158015611571573d6000803e3d6000fd5b505050505050505050505b6001546040517f70a08231000000000000000000000000000000000000000000000000000000008152306004820152600091611624916064916108cf91600a9173ffffffffffffffffffffffffffffffffffffffff16906370a08231906024015b602060405180830381865afa1580156115fa573d6000803e3d6000fd5b505050506040513d601f19601f8201168201806040525081019061161e9190612e23565b90612adc565b42600555600a5490915060008167ffffffffffffffff81111561164957611649612ec5565b604051908082528060200260200182016040528015611672578160200160208202803683370190505b50905060005b8281101561176257600a818154811061169357611693612df4565b60009182526020909120600290910201546040517f70a0823100000000000000000000000000000000000000000000000000000000815230600482015273ffffffffffffffffffffffffffffffffffffffff909116906370a0823190602401602060405180830381865afa15801561170f573d6000803e3d6000fd5b505050506040513d601f19601f820116820180604052508101906117339190612e23565b82828151811061174557611745612df4565b60209081029190910101528061175a81612e8d565b915050611678565b5060005b8281101561190257604080516002808252606082018352600092602083019080368337019050509050600a82815481106117a2576117a2612df4565b6000918252602090912060029091020154815173ffffffffffffffffffffffffffffffffffffffff90911690829060019081106117e1576117e1612df4565b73ffffffffffffffffffffffffffffffffffffffff92831660209182029290920101526001548251911690829060009061181d5761181d612df4565b73ffffffffffffffffffffffffffffffffffffffff9283166020918202929092010152600480546040517f38ed17390000000000000000000000000000000000000000000000000000000081529216916338ed17399161188891899160009187913091429101612f07565b6000604051808303816000875af11580156118a7573d6000803e3d6000fd5b505050506040513d6000823e601f3d9081017fffffffffffffffffffffffffffffffffffffffffffffffffffffffffffffffe01682016040526118ed9190810190612f50565b505080806118fa90612e8d565b915050611766565b50600b5460005b81811015611c7357600060096000600b848154811061192a5761192a612df4565b600091825260208083209091015473ffffffffffffffffffffffffffffffffffffffff9081168452908301939093526040909101902054600254600b805492945092169163a9059cbb918590811061198457611984612df4565b6000918252602090912001546002546040517f70a0823100000000000000000000000000000000000000000000000000000000815230600482015273ffffffffffffffffffffffffffffffffffffffff928316926119f4928d926108cf92899216906370a08231906024016115dd565b6040517fffffffff0000000000000000000000000000000000000000000000000000000060e085901b16815273ffffffffffffffffffffffffffffffffffffffff909216600483015260248201526044016020604051808303816000875af1158015611a64573d6000803e3d6000fd5b505050506040513d601f19601f82011682018060405250810190611a889190612e3c565b506000611a9b60646108cf84600a612adc565b905060005b86811015611c12576000611b3e878381518110611abf57611abf612df4565b6020026020010151600a8481548110611ada57611ada612df4565b60009182526020909120600290910201546040517f70a0823100000000000000000000000000000000000000000000000000000000815230600482015273ffffffffffffffffffffffffffffffffffffffff909116906370a0823190602401610bee565b9050611b4e896108cf8386612adc565b60096000600b8881548110611b6557611b65612df4565b600091825260208083209091015473ffffffffffffffffffffffffffffffffffffffff1683528201929092526040018120600a8054600192909201929186908110611bb257611bb2612df4565b6000918252602080832060029092029091015473ffffffffffffffffffffffffffffffffffffffff16835282019290925260400181208054909190611bf8908490612ef4565b90915550829150611c0a905081612e8d565b915050611aa0565b50600060096000600b8681548110611c2c57611c2c612df4565b600091825260208083209091015473ffffffffffffffffffffffffffffffffffffffff16835282019290925260400190205550819050611c6b81612e8d565b915050611909565b506040805160008152602081019182905251611c9191600b91612b8e565b5060088054906000611ca283612e8d565b91905055505050505050565b60035473ffffffffffffffffffffffffffffffffffffffff163303611d2f576040517f08c379a000000000000000000000000000000000000000000000000000000000815260206004820152601360248201527f43616e277420626520696e746572616374656400000000000000000000000000604482015260640161060b565b6001546040517f70a0823100000000000000000000000000000000000000000000000000000000815230600482015260009173ffffffffffffffffffffffffffffffffffffffff16906370a0823190602401602060405180830381865afa158015611d9e573d6000803e3d6000fd5b505050506040513d601f19601f82011682018060405250810190611dc29190612e23565b600a54604080516002808252606082018352939450919260009291602083019080368337505060018054835193945073ffffffffffffffffffffffffffffffffffffffff16928492508110611e1957611e19612df4565b602002602001019073ffffffffffffffffffffffffffffffffffffffff16908173ffffffffffffffffffffffffffffffffffffffff16815250506000805b83811015611fec57600a8181548110611e7257611e72612df4565b60009182526020822060029091020154845173ffffffffffffffffffffffffffffffffffffffff909116918591611eab57611eab612df4565b73ffffffffffffffffffffffffffffffffffffffff909216602092830291909101820152336000908152600990915260408120600a80546001909201929184908110611ef957611ef9612df4565b6000918252602080832060029092029091015473ffffffffffffffffffffffffffffffffffffffff9081168452908301939093526040909101812054600454909450909116906338ed17399084908630611f54426005612ef4565b6040518663ffffffff1660e01b8152600401611f74959493929190612f07565b6000604051808303816000875af1158015611f93573d6000803e3d6000fd5b505050506040513d6000823e601f3d9081017fffffffffffffffffffffffffffffffffffffffffffffffffffffffffffffffe0168201604052611fd99190810190612f50565b5080611fe481612e8d565b915050611e57565b506001546040517f70a0823100000000000000000000000000000000000000000000000000000000815230600482015260009161204a91879173ffffffffffffffffffffffffffffffffffffffff16906370a0823190602401610bee565b905060006120696103e86108cf60065485612adc90919063ffffffff16565b905060006120886103e86108cf60075486612adc90919063ffffffff16565b905060005b8681101561210a57336000908152600960205260408120600a8054600190920191839190859081106120c1576120c1612df4565b6000918252602080832060029092029091015473ffffffffffffffffffffffffffffffffffffffff1683528201929092526040019020558061210281612e8d565b91505061208d565b5061211981610c2f8585612afb565b3360009081526009602052604081208054909190612138908490612ef4565b909155505060015433600081815260096020526040908190205490517fa9059cbb0000000000000000000000000000000000000000000000000000000081526004810192909252602482015273ffffffffffffffffffffffffffffffffffffffff9091169063a9059cbb906044016020604051808303816000875af11580156121c5573d6000803e3d6000fd5b505050506040513d601f19601f820116820180604052508101906121e99190612e3c565b505033600090815260096020526040812055505050505050565b6040517f70a0823100000000000000000000000000000000000000000000000000000000815230600482015260009073ffffffffffffffffffffffffffffffffffffffff8316906370a0823190602401602060405180830381865afa158015612270573d6000803e3d6000fd5b505050506040513d601f19601f820116820180604052508101906122949190612e23565b92915050565b6001546040517f70a08231000000000000000000000000000000000000000000000000000000008152336004820152829173ffffffffffffffffffffffffffffffffffffffff16906370a0823190602401602060405180830381865afa158015612308573d6000803e3d6000fd5b505050506040513d601f19601f8201168201806040525081019061232c9190612e23565b10156123ba576040517f08c379a000000000000000000000000000000000000000000000000000000000815260206004820152602260248201527f446f6e2774206861766520656e6f75676820616d6f756e7420696e20652e555360448201527f4454000000000000000000000000000000000000000000000000000000000000606482015260840161060b565b6001546040517f23b872dd0000000000000000000000000000000000000000000000000000000081523360048201523060248201526044810183905273ffffffffffffffffffffffffffffffffffffffff909116906323b872dd906064016020604051808303816000875af1158015612437573d6000803e3d6000fd5b505050506040513d601f19601f8201168201806040525081019061245b9190612e3c565b50336000908152600960205260408120805483929061247b908490612ef4565b9091555061248a905033612b07565b6124e957600b80546001810182556000919091527f0175b7a638427703f0dbe7bb9bbf987a2551717b34e79f33b5b1008d1fa01db90180547fffffffffffffffffffffffff000000000000000000000000000000000000000016331790555b50565b604080516002808252606082018352600092839283929091602083019080368337505060018054835193945073ffffffffffffffffffffffffffffffffffffffff1692849250811061254057612540612df4565b602002602001019073ffffffffffffffffffffffffffffffffffffffff16908173ffffffffffffffffffffffffffffffffffffffff168152505060005b600a5481101561277b57600a818154811061259a5761259a612df4565b60009182526020822060029091020154835173ffffffffffffffffffffffffffffffffffffffff9091169184916125d3576125d3612df4565b73ffffffffffffffffffffffffffffffffffffffff9283166020918202929092010152600454600a8054600093929092169163d06ca61f91908590811061261c5761261c612df4565b60009182526020909120600290910201546040517f70a0823100000000000000000000000000000000000000000000000000000000815230600482015273ffffffffffffffffffffffffffffffffffffffff909116906370a0823190602401602060405180830381865afa158015612698573d6000803e3d6000fd5b505050506040513d601f19601f820116820180604052508101906126bc9190612e23565b856040518363ffffffff1660e01b81526004016126da92919061303f565b600060405180830381865afa1580156126f7573d6000803e3d6000fd5b505050506040513d6000823e601f3d9081017fffffffffffffffffffffffffffffffffffffffffffffffffffffffffffffffe016820160405261273d9190810190612f50565b90508060018151811061275257612752612df4565b6020026020010151846127659190612ef4565b935050808061277390612e8d565b91505061257d565b509092915050565b73ffffffffffffffffffffffffffffffffffffffff821660009081526009602052604090205461280f576040517f08c379a000000000000000000000000000000000000000000000000000000000815260206004820152601f60248201527f446f6e2774206861766520616e797468696e6720746f20776974686472617700604482015260640161060b565b73ffffffffffffffffffffffffffffffffffffffff82166000908152600960205260409020548110156128c3576040517f08c379a0000000000000000000000000000000000000000000000000000000008152602060048201526024808201527f446f6e2774206861766520656e6f75676820616d6f756e7420746f207769746860448201527f6472617700000000000000000000000000000000000000000000000000000000606482015260840161060b565b6001546040517fa9059cbb00000000000000000000000000000000000000000000000000000000815273ffffffffffffffffffffffffffffffffffffffff8481166004830152602482018490529091169063a9059cbb906044016020604051808303816000875af115801561293c573d6000803e3d6000fd5b505050506040513d601f19601f820116820180604052508101906129609190612e3c565b505050565b600a5460609060008167ffffffffffffffff81111561298657612986612ec5565b6040519080825280602002602001820160405280156129af578160200160208202803683370190505b50905060005b82811015612a655773ffffffffffffffffffffffffffffffffffffffff85166000908152600960205260408120600a805460019092019291849081106129fd576129fd612df4565b6000918252602080832060029092029091015473ffffffffffffffffffffffffffffffffffffffff1683528201929092526040019020548251839083908110612a4857612a48612df4565b602090810291909101015280612a5d81612e8d565b9150506129b5565b509392505050565b6060600b805480602002602001604051908101604052809291908181526020018280548015612ad257602002820191906000526020600020905b815473ffffffffffffffffffffffffffffffffffffffff168152600190910190602001808311612aa7575b5050505050905090565b6000612ae88284613060565b9392505050565b6000612ae88284613077565b6000612ae8828461302c565b600b54600090815b81811015612b84578373ffffffffffffffffffffffffffffffffffffffff16600b8281548110612b4157612b41612df4565b60009182526020909120015473ffffffffffffffffffffffffffffffffffffffff1603612b72575060019392505050565b80612b7c81612e8d565b915050612b0f565b5060009392505050565b828054828255906000526020600020908101928215612c08579160200282015b82811115612c0857825182547fffffffffffffffffffffffff00000000000000000000000000000000000000001673ffffffffffffffffffffffffffffffffffffffff909116178255602090920191600190910190612bae565b50612c14929150612c18565b5090565b5b80821115612c145760008155600101612c19565b600060208284031215612c3f57600080fd5b5035919050565b803573ffffffffffffffffffffffffffffffffffffffff81168114612c6a57600080fd5b919050565b600060208284031215612c8157600080fd5b612ae882612c46565b602080825282518282018190526000919060409081850190868401855b82811015612ce2578151805173ffffffffffffffffffffffffffffffffffffffff168552860151868501529284019290850190600101612ca7565b5091979650505050505050565b60008060408385031215612d0257600080fd5b612d0b83612c46565b946020939093013593505050565b6020808252825182820181905260009190848201906040850190845b81811015612d5157835183529284019291840191600101612d35565b50909695505050505050565b600081518084526020808501945080840160005b83811015612da357815173ffffffffffffffffffffffffffffffffffffffff1687529582019590820190600101612d71565b509495945050505050565b602081526000612ae86020830184612d5d565b60008060408385031215612dd457600080fd5b612ddd83612c46565b9150612deb60208401612c46565b90509250929050565b7f4e487b7100000000000000000000000000000000000000000000000000000000600052603260045260246000fd5b600060208284031215612e3557600080fd5b5051919050565b600060208284031215612e4e57600080fd5b81518015158114612ae857600080fd5b7f4e487b7100000000000000000000000000000000000000000000000000000000600052601160045260246000fd5b60007fffffffffffffffffffffffffffffffffffffffffffffffffffffffffffffffff8203612ebe57612ebe612e5e565b5060010190565b7f4e487b7100000000000000000000000000000000000000000000000000000000600052604160045260246000fd5b8082018082111561229457612294612e5e565b85815284602082015260a060408201526000612f2660a0830186612d5d565b73ffffffffffffffffffffffffffffffffffffffff94909416606083015250608001529392505050565b60006020808385031215612f6357600080fd5b825167ffffffffffffffff80821115612f7b57600080fd5b818501915085601f830112612f8f57600080fd5b815181811115612fa157612fa1612ec5565b8060051b6040517fffffffffffffffffffffffffffffffffffffffffffffffffffffffffffffffe0603f83011681018181108582111715612fe457612fe4612ec5565b60405291825284820192508381018501918883111561300257600080fd5b938501935b8285101561302057845184529385019392850192613007565b98975050505050505050565b8181038181111561229457612294612e5e565b8281526040602082015260006130586040830184612d5d565b949350505050565b808202811582820484141761229457612294612e5e565b6000826130ad577f4e487b7100000000000000000000000000000000000000000000000000000000600052601260045260246000fd5b50049056fea2646970667358221220afc94aa95c22cc9c8ab64284e4c2a26ee64cc3662e3fa790ae85c3cdb482a64f64736f6c63430008140033",
  "linkReferences": {},
  "deployedLinkReferences": {}
}